{"abi":[{"type":"constructor","inputs":[{"name":"owner","type":"address","internalType":"address"}],"stateMutability":"nonpayable"},{"type":"function","name":"_owner","inputs":[],"outputs":[{"name":"","type":"address","internalType":"address"}],"stateMutability":"view"},{"type":"function","name":"allowance","inputs":[{"name":"owner","type":"address","internalType":"address"},{"name":"spender","type":"address","internalType":"address"}],"outputs":[{"name":"","type":"uint256","internalType":"uint256"}],"stateMutability":"view"},{"type":"function","name":"approve","inputs":[{"name":"spender","type":"address","internalType":"address"},{"name":"value","type":"uint256","internalType":"uint256"}],"outputs":[{"name":"","type":"bool","internalType":"bool"}],"stateMutability":"nonpayable"},{"type":"function","name":"balanceOf","inputs":[{"name":"account","type":"address","internalType":"address"}],"outputs":[{"name":"","type":"uint256","internalType":"uint256"}],"stateMutability":"view"},{"type":"function","name":"decimals","inputs":[],"outputs":[{"name":"","type":"uint8","internalType":"uint8"}],"stateMutability":"view"},{"type":"function","name":"dieByMonster","inputs":[{"name":"playerAddress","type":"address","internalType":"address"}],"outputs":[],"stateMutability":"nonpayable"},{"type":"function","name":"dieByTrap","inputs":[{"name":"playerAddress","type":"address","internalType":"address"},{"name":"trapOwner","type":"address","internalType":"address"}],"outputs":[],"stateMutability":"nonpayable"},{"type":"function","name":"killMonster","inputs":[{"name":"rewardAddress","type":"address","internalType":"address"}],"outputs":[],"stateMutability":"nonpayable"},{"type":"function","name":"name","inputs":[],"outputs":[{"name":"","type":"string","internalType":"string"}],"stateMutability":"view"},{"type":"function","name":"symbol","inputs":[],"outputs":[{"name":"","type":"string","internalType":"string"}],"stateMutability":"view"},{"type":"function","name":"totalSupply","inputs":[],"outputs":[{"name":"","type":"uint256","internalType":"uint256"}],"stateMutability":"view"},{"type":"function","name":"transfer","inputs":[{"name":"to","type":"address","internalType":"address"},{"name":"value","type":"uint256","internalType":"uint256"}],"outputs":[{"name":"","type":"bool","internalType":"bool"}],"stateMutability":"nonpayable"},{"type":"function","name":"transferFrom","inputs":[{"name":"from","type":"address","internalType":"address"},{"name":"to","type":"address","internalType":"address"},{"name":"value","type":"uint256","internalType":"uint256"}],"outputs":[{"name":"","type":"bool","internalType":"bool"}],"stateMutability":"nonpayable"},{"type":"event","name":"Approval","inputs":[{"name":"owner","type":"address","indexed":true,"internalType":"address"},{"name":"spender","type":"address","indexed":true,"internalType":"address"},{"name":"value","type":"uint256","indexed":false,"internalType":"uint256"}],"anonymous":false},{"type":"event","name":"Transfer","inputs":[{"name":"from","type":"address","indexed":true,"internalType":"address"},{"name":"to","type":"address","indexed":true,"internalType":"address"},{"name":"value","type":"uint256","indexed":false,"internalType":"uint256"}],"anonymous":false},{"type":"error","name":"ERC20InsufficientAllowance","inputs":[{"name":"spender","type":"address","internalType":"address"},{"name":"allowance","type":"uint256","internalType":"uint256"},{"name":"needed","type":"uint256","internalType":"uint256"}]},{"type":"error","name":"ERC20InsufficientBalance","inputs":[{"name":"sender","type":"address","internalType":"address"},{"name":"balance","type":"uint256","internalType":"uint256"},{"name":"needed","type":"uint256","internalType":"uint256"}]},{"type":"error","name":"ERC20InvalidApprover","inputs":[{"name":"approver","type":"address","internalType":"address"}]},{"type":"error","name":"ERC20InvalidReceiver","inputs":[{"name":"receiver","type":"address","internalType":"address"}]},{"type":"error","name":"ERC20InvalidSender","inputs":[{"name":"sender","type":"address","internalType":"address"}]},{"type":"error","name":"ERC20InvalidSpender","inputs":[{"name":"spender","type":"address","internalType":"address"}]}],"bytecode":{"object":"0x608060405234801561000f575f5ffd5b5060405161186438038061186483398181016040528101906100319190610163565b6040518060400160405280600581526020017f526976616c0000000000000000000000000000000000000000000000000000008152506040518060400160405280600581526020017f524956414c00000000000000000000000000000000000000000000000000000081525081600390816100ac91906103cb565b5080600490816100bc91906103cb565b5050508060055f6101000a81548173ffffffffffffffffffffffffffffffffffffffff021916908373ffffffffffffffffffffffffffffffffffffffff1602179055505061049a565b5f5ffd5b5f73ffffffffffffffffffffffffffffffffffffffff82169050919050565b5f61013282610109565b9050919050565b61014281610128565b811461014c575f5ffd5b50565b5f8151905061015d81610139565b92915050565b5f6020828403121561017857610177610105565b5b5f6101858482850161014f565b91505092915050565b5f81519050919050565b7f4e487b71000000000000000000000000000000000000000000000000000000005f52604160045260245ffd5b7f4e487b71000000000000000000000000000000000000000000000000000000005f52602260045260245ffd5b5f600282049050600182168061020957607f821691505b60208210810361021c5761021b6101c5565b5b50919050565b5f819050815f5260205f209050919050565b5f6020601f8301049050919050565b5f82821b905092915050565b5f6008830261027e7fffffffffffffffffffffffffffffffffffffffffffffffffffffffffffffffff82610243565b6102888683610243565b95508019841693508086168417925050509392505050565b5f819050919050565b5f819050919050565b5f6102cc6102c76102c2846102a0565b6102a9565b6102a0565b9050919050565b5f819050919050565b6102e5836102b2565b6102f96102f1826102d3565b84845461024f565b825550505050565b5f5f905090565b610310610301565b61031b8184846102dc565b505050565b5b8181101561033e576103335f82610308565b600181019050610321565b5050565b601f8211156103835761035481610222565b61035d84610234565b8101602085101561036c578190505b61038061037885610234565b830182610320565b50505b505050565b5f82821c905092915050565b5f6103a35f1984600802610388565b1980831691505092915050565b5f6103bb8383610394565b9150826002028217905092915050565b6103d48261018e565b67ffffffffffffffff8111156103ed576103ec610198565b5b6103f782546101f2565b610402828285610342565b5f60209050601f831160018114610433575f8415610421578287015190505b61042b85826103b0565b865550610492565b601f19841661044186610222565b5f5b8281101561046857848901518255600182019150602085019450602081019050610443565b868310156104855784890151610481601f891682610394565b8355505b6001600288020188555050505b505050505050565b6113bd806104a75f395ff3fe608060405234801561000f575f5ffd5b50600436106100cd575f3560e01c8063393b0f471161008a578063a9059cbb11610064578063a9059cbb14610211578063b2bdfa7b14610241578063bfbff9051461025f578063dd62ed3e1461027b576100cd565b8063393b0f47146101a757806370a08231146101c357806395d89b41146101f3576100cd565b806306fdde03146100d1578063095ea7b3146100ef57806318160ddd1461011f57806323b872dd1461013d5780632fa5c22d1461016d578063313ce56714610189575b5f5ffd5b6100d96102ab565b6040516100e69190610e60565b60405180910390f35b61010960048036038101906101049190610f11565b61033b565b6040516101169190610f69565b60405180910390f35b61012761035d565b6040516101349190610f91565b60405180910390f35b61015760048036038101906101529190610faa565b610366565b6040516101649190610f69565b60405180910390f35b61018760048036038101906101829190610ffa565b610394565b005b61019161045c565b60405161019e9190611053565b60405180910390f35b6101c160048036038101906101bc919061106c565b610464565b005b6101dd60048036038101906101d8919061106c565b61050a565b6040516101ea9190610f91565b60405180910390f35b6101fb61054f565b6040516102089190610e60565b60405180910390f35b61022b60048036038101906102269190610f11565b6105df565b6040516102389190610f69565b60405180910390f35b610249610601565b60405161025691906110a6565b60405180910390f35b6102796004803603810190610274919061106c565b610626565b005b61029560048036038101906102909190610ffa565b6106ec565b6040516102a29190610f91565b60405180910390f35b6060600380546102ba906110ec565b80601f01602080910402602001604051908101604052809291908181526020018280546102e6906110ec565b80156103315780601f1061030857610100808354040283529160200191610331565b820191905f5260205f20905b81548152906001019060200180831161031457829003601f168201915b5050505050905090565b5f5f61034561076e565b9050610352818585610775565b600191505092915050565b5f600254905090565b5f5f61037061076e565b905061037d858285610787565b61038885858561081a565b60019150509392505050565b60055f9054906101000a900473ffffffffffffffffffffffffffffffffffffffff1673ffffffffffffffffffffffffffffffffffffffff163373ffffffffffffffffffffffffffffffffffffffff1614610423576040517f08c379a000000000000000000000000000000000000000000000000000000000815260040161041a90611166565b60405180910390fd5b5f61042d8361050a565b90505f606460148361043f91906111b1565b610449919061121f565b905061045684848361081a565b50505050565b5f6012905090565b60055f9054906101000a900473ffffffffffffffffffffffffffffffffffffffff1673ffffffffffffffffffffffffffffffffffffffff163373ffffffffffffffffffffffffffffffffffffffff16146104f3576040517f08c379a00000000000000000000000000000000000000000000000000000000081526004016104ea90611299565b60405180910390fd5b6105078169d3c21bcecceda100000061090a565b50565b5f5f5f8373ffffffffffffffffffffffffffffffffffffffff1673ffffffffffffffffffffffffffffffffffffffff1681526020019081526020015f20549050919050565b60606004805461055e906110ec565b80601f016020809104026020016040519081016040528092919081815260200182805461058a906110ec565b80156105d55780601f106105ac576101008083540402835291602001916105d5565b820191905f5260205f20905b8154815290600101906020018083116105b857829003601f168201915b5050505050905090565b5f5f6105e961076e565b90506105f681858561081a565b600191505092915050565b60055f9054906101000a900473ffffffffffffffffffffffffffffffffffffffff1681565b60055f9054906101000a900473ffffffffffffffffffffffffffffffffffffffff1673ffffffffffffffffffffffffffffffffffffffff163373ffffffffffffffffffffffffffffffffffffffff16146106b5576040517f08c379a00000000000000000000000000000000000000000000000000000000081526004016106ac90611301565b60405180910390fd5b5f6106bf8261050a565b90505f60646014836106d191906111b1565b6106db919061121f565b90506106e78382610989565b505050565b5f60015f8473ffffffffffffffffffffffffffffffffffffffff1673ffffffffffffffffffffffffffffffffffffffff1681526020019081526020015f205f8373ffffffffffffffffffffffffffffffffffffffff1673ffffffffffffffffffffffffffffffffffffffff1681526020019081526020015f2054905092915050565b5f33905090565b6107828383836001610a08565b505050565b5f61079284846106ec565b90507fffffffffffffffffffffffffffffffffffffffffffffffffffffffffffffffff8110156108145781811015610805578281836040517ffb8f41b20000000000000000000000000000000000000000000000000000000081526004016107fc9392919061131f565b60405180910390fd5b61081384848484035f610a08565b5b50505050565b5f73ffffffffffffffffffffffffffffffffffffffff168373ffffffffffffffffffffffffffffffffffffffff160361088a575f6040517f96c6fd1e00000000000000000000000000000000000000000000000000000000815260040161088191906110a6565b60405180910390fd5b5f73ffffffffffffffffffffffffffffffffffffffff168273ffffffffffffffffffffffffffffffffffffffff16036108fa575f6040517fec442f050000000000000000000000000000000000000000000000000000000081526004016108f191906110a6565b60405180910390fd5b610905838383610bd7565b505050565b5f73ffffffffffffffffffffffffffffffffffffffff168273ffffffffffffffffffffffffffffffffffffffff160361097a575f6040517fec442f0500000000000000000000000000000000000000000000000000000000815260040161097191906110a6565b60405180910390fd5b6109855f8383610bd7565b5050565b5f73ffffffffffffffffffffffffffffffffffffffff168273ffffffffffffffffffffffffffffffffffffffff16036109f9575f6040517f96c6fd1e0000000000000000000000000000000000000000000000000000000081526004016109f091906110a6565b60405180910390fd5b610a04825f83610bd7565b5050565b5f73ffffffffffffffffffffffffffffffffffffffff168473ffffffffffffffffffffffffffffffffffffffff1603610a78575f6040517fe602df05000000000000000000000000000000000000000000000000000000008152600401610a6f91906110a6565b60405180910390fd5b5f73ffffffffffffffffffffffffffffffffffffffff168373ffffffffffffffffffffffffffffffffffffffff1603610ae8575f6040517f94280d62000000000000000000000000000000000000000000000000000000008152600401610adf91906110a6565b60405180910390fd5b8160015f8673ffffffffffffffffffffffffffffffffffffffff1673ffffffffffffffffffffffffffffffffffffffff1681526020019081526020015f205f8573ffffffffffffffffffffffffffffffffffffffff1673ffffffffffffffffffffffffffffffffffffffff1681526020019081526020015f20819055508015610bd1578273ffffffffffffffffffffffffffffffffffffffff168473ffffffffffffffffffffffffffffffffffffffff167f8c5be1e5ebec7d5bd14f71427d1e84f3dd0314c0f7b2291e5b200ac8c7c3b92584604051610bc89190610f91565b60405180910390a35b50505050565b5f73ffffffffffffffffffffffffffffffffffffffff168373ffffffffffffffffffffffffffffffffffffffff1603610c27578060025f828254610c1b9190611354565b92505081905550610cf5565b5f5f5f8573ffffffffffffffffffffffffffffffffffffffff1673ffffffffffffffffffffffffffffffffffffffff1681526020019081526020015f2054905081811015610cb0578381836040517fe450d38c000000000000000000000000000000000000000000000000000000008152600401610ca79392919061131f565b60405180910390fd5b8181035f5f8673ffffffffffffffffffffffffffffffffffffffff1673ffffffffffffffffffffffffffffffffffffffff1681526020019081526020015f2081905550505b5f73ffffffffffffffffffffffffffffffffffffffff168273ffffffffffffffffffffffffffffffffffffffff1603610d3c578060025f8282540392505081905550610d86565b805f5f8473ffffffffffffffffffffffffffffffffffffffff1673ffffffffffffffffffffffffffffffffffffffff1681526020019081526020015f205f82825401925050819055505b8173ffffffffffffffffffffffffffffffffffffffff168373ffffffffffffffffffffffffffffffffffffffff167fddf252ad1be2c89b69c2b068fc378daa952ba7f163c4a11628f55a4df523b3ef83604051610de39190610f91565b60405180910390a3505050565b5f81519050919050565b5f82825260208201905092915050565b8281835e5f83830152505050565b5f601f19601f8301169050919050565b5f610e3282610df0565b610e3c8185610dfa565b9350610e4c818560208601610e0a565b610e5581610e18565b840191505092915050565b5f6020820190508181035f830152610e788184610e28565b905092915050565b5f5ffd5b5f73ffffffffffffffffffffffffffffffffffffffff82169050919050565b5f610ead82610e84565b9050919050565b610ebd81610ea3565b8114610ec7575f5ffd5b50565b5f81359050610ed881610eb4565b92915050565b5f819050919050565b610ef081610ede565b8114610efa575f5ffd5b50565b5f81359050610f0b81610ee7565b92915050565b5f5f60408385031215610f2757610f26610e80565b5b5f610f3485828601610eca565b9250506020610f4585828601610efd565b9150509250929050565b5f8115159050919050565b610f6381610f4f565b82525050565b5f602082019050610f7c5f830184610f5a565b92915050565b610f8b81610ede565b82525050565b5f602082019050610fa45f830184610f82565b92915050565b5f5f5f60608486031215610fc157610fc0610e80565b5b5f610fce86828701610eca565b9350506020610fdf86828701610eca565b9250506040610ff086828701610efd565b9150509250925092565b5f5f604083850312156110105761100f610e80565b5b5f61101d85828601610eca565b925050602061102e85828601610eca565b9150509250929050565b5f60ff82169050919050565b61104d81611038565b82525050565b5f6020820190506110665f830184611044565b92915050565b5f6020828403121561108157611080610e80565b5b5f61108e84828501610eca565b91505092915050565b6110a081610ea3565b82525050565b5f6020820190506110b95f830184611097565b92915050565b7f4e487b71000000000000000000000000000000000000000000000000000000005f52602260045260245ffd5b5f600282049050600182168061110357607f821691505b602082108103611116576111156110bf565b5b50919050565b7f4f6e6c79206f776e65722063616e2063616c6c206469654279547261700000005f82015250565b5f611150601d83610dfa565b915061115b8261111c565b602082019050919050565b5f6020820190508181035f83015261117d81611144565b9050919050565b7f4e487b71000000000000000000000000000000000000000000000000000000005f52601160045260245ffd5b5f6111bb82610ede565b91506111c683610ede565b92508282026111d481610ede565b915082820484148315176111eb576111ea611184565b5b5092915050565b7f4e487b71000000000000000000000000000000000000000000000000000000005f52601260045260245ffd5b5f61122982610ede565b915061123483610ede565b925082611244576112436111f2565b5b828204905092915050565b7f4f6e6c79206f776e65722063616e2063616c6c206b696c6c4d6f6e73746572005f82015250565b5f611283601f83610dfa565b915061128e8261124f565b602082019050919050565b5f6020820190508181035f8301526112b081611277565b9050919050565b7f4f6e6c79206f776e65722063616e2063616c6c2064696542794d6f6e737465725f82015250565b5f6112eb602083610dfa565b91506112f6826112b7565b602082019050919050565b5f6020820190508181035f830152611318816112df565b9050919050565b5f6060820190506113325f830186611097565b61133f6020830185610f82565b61134c6040830184610f82565b949350505050565b5f61135e82610ede565b915061136983610ede565b925082820190508082111561138157611380611184565b5b9291505056fea2646970667358221220f781ecbf06c0990614d12cef156a476da555104241cde57374c98c1b862ea2c364736f6c634300081d0033","linkReferences":{}},"methodIdentifiers":{"_owner()":"b2bdfa7b","allowance(address,address)":"dd62ed3e","approve(address,uint256)":"095ea7b3","balanceOf(address)":"70a08231","decimals()":"313ce567","dieByMonster(address)":"bfbff905","dieByTrap(address,address)":"2fa5c22d","killMonster(address)":"393b0f47","name()":"06fdde03","symbol()":"95d89b41","totalSupply()":"18160ddd","transfer(address,uint256)":"a9059cbb","transferFrom(address,address,uint256)":"23b872dd"},"id":0}